{
  "_format": "hh-sol-artifact-1",
  "contractName": "Psucc",
  "sourceName": "contracts/Psucc.sol",
  "abi": [
    {
      "inputs": [],
      "stateMutability": "nonpayable",
      "type": "constructor"
    },
    {
      "anonymous": false,
      "inputs": [
        {
          "indexed": true,
          "internalType": "address",
          "name": "owner",
          "type": "address"
        },
        {
          "indexed": true,
          "internalType": "address",
          "name": "spender",
          "type": "address"
        },
        {
          "indexed": false,
          "internalType": "uint256",
          "name": "value",
          "type": "uint256"
        }
      ],
      "name": "Approval",
      "type": "event"
    },
    {
      "anonymous": false,
      "inputs": [
        {
          "indexed": true,
          "internalType": "address",
          "name": "from",
          "type": "address"
        },
        {
          "indexed": true,
          "internalType": "address",
          "name": "to",
          "type": "address"
        },
        {
          "indexed": false,
          "internalType": "uint256",
          "name": "value",
          "type": "uint256"
        }
      ],
      "name": "Transfer",
      "type": "event"
    },
    {
      "inputs": [
        {
          "internalType": "address",
          "name": "",
          "type": "address"
        },
        {
          "internalType": "address",
          "name": "",
          "type": "address"
        }
      ],
      "name": "allowance",
      "outputs": [
        {
          "internalType": "uint256",
          "name": "",
          "type": "uint256"
        }
      ],
      "stateMutability": "view",
      "type": "function"
    },
    {
      "inputs": [
        {
          "internalType": "address",
          "name": "spender",
          "type": "address"
        },
        {
          "internalType": "uint256",
          "name": "amount",
          "type": "uint256"
        }
      ],
      "name": "approve",
      "outputs": [
        {
          "internalType": "bool",
          "name": "",
          "type": "bool"
        }
      ],
      "stateMutability": "nonpayable",
      "type": "function"
    },
    {
      "inputs": [
        {
          "internalType": "address",
          "name": "",
          "type": "address"
        }
      ],
      "name": "balanceOf",
      "outputs": [
        {
          "internalType": "uint256",
          "name": "",
          "type": "uint256"
        }
      ],
      "stateMutability": "view",
      "type": "function"
    },
    {
      "inputs": [
        {
          "internalType": "address",
          "name": "from",
          "type": "address"
        },
        {
          "internalType": "uint256",
          "name": "amount",
          "type": "uint256"
        }
      ],
      "name": "burnToken",
      "outputs": [],
      "stateMutability": "nonpayable",
      "type": "function"
    },
    {
      "inputs": [],
      "name": "decimals",
      "outputs": [
        {
          "internalType": "uint8",
          "name": "",
          "type": "uint8"
        }
      ],
      "stateMutability": "view",
      "type": "function"
    },
    {
      "inputs": [],
      "name": "getdecimals",
      "outputs": [
        {
          "internalType": "uint8",
          "name": "",
          "type": "uint8"
        }
      ],
      "stateMutability": "view",
      "type": "function"
    },
    {
      "inputs": [
        {
          "internalType": "address",
          "name": "to",
          "type": "address"
        },
        {
          "internalType": "uint256",
          "name": "amount",
          "type": "uint256"
        }
      ],
      "name": "minttoken",
      "outputs": [],
      "stateMutability": "nonpayable",
      "type": "function"
    },
    {
      "inputs": [],
      "name": "name",
      "outputs": [
        {
          "internalType": "string",
          "name": "",
          "type": "string"
        }
      ],
      "stateMutability": "view",
      "type": "function"
    },
    {
      "inputs": [],
      "name": "symbol",
      "outputs": [
        {
          "internalType": "string",
          "name": "",
          "type": "string"
        }
      ],
      "stateMutability": "view",
      "type": "function"
    },
    {
      "inputs": [],
      "name": "totalSupply",
      "outputs": [
        {
          "internalType": "uint256",
          "name": "",
          "type": "uint256"
        }
      ],
      "stateMutability": "view",
      "type": "function"
    },
    {
      "inputs": [
        {
          "internalType": "address",
          "name": "recipient",
          "type": "address"
        },
        {
          "internalType": "uint256",
          "name": "amount",
          "type": "uint256"
        }
      ],
      "name": "transfer",
      "outputs": [
        {
          "internalType": "bool",
          "name": "",
          "type": "bool"
        }
      ],
      "stateMutability": "nonpayable",
      "type": "function"
    },
    {
      "inputs": [
        {
          "internalType": "address",
          "name": "sender",
          "type": "address"
        },
        {
          "internalType": "address",
          "name": "recipient",
          "type": "address"
        },
        {
          "internalType": "uint256",
          "name": "amount",
          "type": "uint256"
        }
      ],
      "name": "transferFrom",
      "outputs": [
        {
          "internalType": "bool",
          "name": "",
          "type": "bool"
        }
      ],
      "stateMutability": "nonpayable",
      "type": "function"
    }
  ],
  "bytecode": "0x60806040523480156200001157600080fd5b506040518060400160405280600581526020017f50737563630000000000000000000000000000000000000000000000000000008152506040518060400160405280600481526020017f505355430000000000000000000000000000000000000000000000000000000081525060038260039080519060200190620000989291906200020b565b508160049080519060200190620000b19291906200020b565b5080600560006101000a81548160ff021916908360ff1602179055505050506200011033620000e56200011660201b60201c565b600a620000f39190620003a1565b633b9aca00620001049190620004de565b6200012d60201b60201c565b620005f7565b6000600560009054906101000a900460ff16905090565b80600160008473ffffffffffffffffffffffffffffffffffffffff1673ffffffffffffffffffffffffffffffffffffffff16815260200190815260200160002060008282546200017e9190620002e9565b9250508190555080600080828254620001989190620002e9565b925050819055508173ffffffffffffffffffffffffffffffffffffffff16600073ffffffffffffffffffffffffffffffffffffffff167fddf252ad1be2c89b69c2b068fc378daa952ba7f163c4a11628f55a4df523b3ef83604051620001ff9190620002cc565b60405180910390a35050565b828054620002199062000556565b90600052602060002090601f0160209004810192826200023d576000855562000289565b82601f106200025857805160ff191683800117855562000289565b8280016001018555821562000289579182015b82811115620002885782518255916020019190600101906200026b565b5b5090506200029891906200029c565b5090565b5b80821115620002b75760008160009055506001016200029d565b5090565b620002c6816200053f565b82525050565b6000602082019050620002e36000830184620002bb565b92915050565b6000620002f6826200053f565b915062000303836200053f565b9250827fffffffffffffffffffffffffffffffffffffffffffffffffffffffffffffffff038211156200033b576200033a6200058c565b5b828201905092915050565b6000808291508390505b6001851115620003985780860481111562000370576200036f6200058c565b5b6001851615620003805780820291505b80810290506200039085620005ea565b945062000350565b94509492505050565b6000620003ae826200053f565b9150620003bb8362000549565b9250620003ea7fffffffffffffffffffffffffffffffffffffffffffffffffffffffffffffffff8484620003f2565b905092915050565b600082620004045760019050620004d7565b81620004145760009050620004d7565b81600181146200042d576002811462000438576200046e565b6001915050620004d7565b60ff8411156200044d576200044c6200058c565b5b8360020a9150848211156200046757620004666200058c565b5b50620004d7565b5060208310610133831016604e8410600b8410161715620004a85782820a905083811115620004a257620004a16200058c565b5b620004d7565b620004b7848484600162000346565b92509050818404811115620004d157620004d06200058c565b5b81810290505b9392505050565b6000620004eb826200053f565b9150620004f8836200053f565b9250817fffffffffffffffffffffffffffffffffffffffffffffffffffffffffffffffff04831182151516156200053457620005336200058c565b5b828202905092915050565b6000819050919050565b600060ff82169050919050565b600060028204905060018216806200056f57607f821691505b60208210811415620005865762000585620005bb565b5b50919050565b7f4e487b7100000000000000000000000000000000000000000000000000000000600052601160045260246000fd5b7f4e487b7100000000000000000000000000000000000000000000000000000000600052602260045260246000fd5b60008160011c9050919050565b610db280620006076000396000f3fe608060405234801561001057600080fd5b50600436106100b45760003560e01c806370a082311161007157806370a082311461018f57806395d89b41146101bf578063a9059cbb146101dd578063b20e5a791461020d578063d1df306c1461022b578063dd62ed3e14610247576100b4565b806306fdde03146100b9578063095ea7b3146100d75780630c5fd4b21461010757806318160ddd1461012357806323b872dd14610141578063313ce56714610171575b600080fd5b6100c1610277565b6040516100ce9190610b27565b60405180910390f35b6100f160048036038101906100ec9190610a6a565b610305565b6040516100fe9190610b0c565b60405180910390f35b610121600480360381019061011c9190610a6a565b6103f7565b005b61012b610405565b6040516101389190610b49565b60405180910390f35b61015b60048036038101906101569190610a1b565b61040b565b6040516101689190610b0c565b60405180910390f35b6101796105bc565b6040516101869190610b64565b60405180910390f35b6101a960048036038101906101a491906109b6565b6105cf565b6040516101b69190610b49565b60405180910390f35b6101c76105e7565b6040516101d49190610b27565b60405180910390f35b6101f760048036038101906101f29190610a6a565b610675565b6040516102049190610b0c565b60405180910390f35b610215610792565b6040516102229190610b64565b60405180910390f35b61024560048036038101906102409190610a6a565b6107a9565b005b610261600480360381019061025c91906109df565b6107b7565b60405161026e9190610b49565b60405180910390f35b6003805461028490610cad565b80601f01602080910402602001604051908101604052809291908181526020018280546102b090610cad565b80156102fd5780601f106102d2576101008083540402835291602001916102fd565b820191906000526020600020905b8154815290600101906020018083116102e057829003601f168201915b505050505081565b600081600260003373ffffffffffffffffffffffffffffffffffffffff1673ffffffffffffffffffffffffffffffffffffffff16815260200190815260200160002060008573ffffffffffffffffffffffffffffffffffffffff1673ffffffffffffffffffffffffffffffffffffffff168152602001908152602001600020819055508273ffffffffffffffffffffffffffffffffffffffff163373ffffffffffffffffffffffffffffffffffffffff167f8c5be1e5ebec7d5bd14f71427d1e84f3dd0314c0f7b2291e5b200ac8c7c3b925846040516103e59190610b49565b60405180910390a36001905092915050565b61040182826107dc565b5050565b60005481565b600081600260008673ffffffffffffffffffffffffffffffffffffffff1673ffffffffffffffffffffffffffffffffffffffff16815260200190815260200160002060003373ffffffffffffffffffffffffffffffffffffffff1673ffffffffffffffffffffffffffffffffffffffff16815260200190815260200160002060008282546104999190610bf1565b9250508190555081600160008673ffffffffffffffffffffffffffffffffffffffff1673ffffffffffffffffffffffffffffffffffffffff16815260200190815260200160002060008282546104ef9190610bf1565b9250508190555081600160008573ffffffffffffffffffffffffffffffffffffffff1673ffffffffffffffffffffffffffffffffffffffff16815260200190815260200160002060008282546105459190610b9b565b925050819055508273ffffffffffffffffffffffffffffffffffffffff168473ffffffffffffffffffffffffffffffffffffffff167fddf252ad1be2c89b69c2b068fc378daa952ba7f163c4a11628f55a4df523b3ef846040516105a99190610b49565b60405180910390a3600190509392505050565b600560009054906101000a900460ff1681565b60016020528060005260406000206000915090505481565b600480546105f490610cad565b80601f016020809104026020016040519081016040528092919081815260200182805461062090610cad565b801561066d5780601f106106425761010080835404028352916020019161066d565b820191906000526020600020905b81548152906001019060200180831161065057829003601f168201915b505050505081565b600081600160003373ffffffffffffffffffffffffffffffffffffffff1673ffffffffffffffffffffffffffffffffffffffff16815260200190815260200160002060008282546106c69190610bf1565b9250508190555081600160008573ffffffffffffffffffffffffffffffffffffffff1673ffffffffffffffffffffffffffffffffffffffff168152602001908152602001600020600082825461071c9190610b9b565b925050819055508273ffffffffffffffffffffffffffffffffffffffff163373ffffffffffffffffffffffffffffffffffffffff167fddf252ad1be2c89b69c2b068fc378daa952ba7f163c4a11628f55a4df523b3ef846040516107809190610b49565b60405180910390a36001905092915050565b6000600560009054906101000a900460ff16905090565b6107b382826108b4565b5050565b6002602052816000526040600020602052806000526040600020600091509150505481565b80600160008473ffffffffffffffffffffffffffffffffffffffff1673ffffffffffffffffffffffffffffffffffffffff168152602001908152602001600020600082825461082b9190610b9b565b92505081905550806000808282546108439190610b9b565b925050819055508173ffffffffffffffffffffffffffffffffffffffff16600073ffffffffffffffffffffffffffffffffffffffff167fddf252ad1be2c89b69c2b068fc378daa952ba7f163c4a11628f55a4df523b3ef836040516108a89190610b49565b60405180910390a35050565b80600160008473ffffffffffffffffffffffffffffffffffffffff1673ffffffffffffffffffffffffffffffffffffffff16815260200190815260200160002060008282546109039190610bf1565b925050819055508060008082825461091b9190610bf1565b92505081905550600073ffffffffffffffffffffffffffffffffffffffff168273ffffffffffffffffffffffffffffffffffffffff167fddf252ad1be2c89b69c2b068fc378daa952ba7f163c4a11628f55a4df523b3ef836040516109809190610b49565b60405180910390a35050565b60008135905061099b81610d4e565b92915050565b6000813590506109b081610d65565b92915050565b6000602082840312156109c857600080fd5b60006109d68482850161098c565b91505092915050565b600080604083850312156109f257600080fd5b6000610a008582860161098c565b9250506020610a118582860161098c565b9150509250929050565b600080600060608486031215610a3057600080fd5b6000610a3e8682870161098c565b9350506020610a4f8682870161098c565b9250506040610a60868287016109a1565b9150509250925092565b60008060408385031215610a7d57600080fd5b6000610a8b8582860161098c565b9250506020610a9c858286016109a1565b9150509250929050565b610aaf81610c37565b82525050565b6000610ac082610b7f565b610aca8185610b8a565b9350610ada818560208601610c7a565b610ae381610d3d565b840191505092915050565b610af781610c63565b82525050565b610b0681610c6d565b82525050565b6000602082019050610b216000830184610aa6565b92915050565b60006020820190508181036000830152610b418184610ab5565b905092915050565b6000602082019050610b5e6000830184610aee565b92915050565b6000602082019050610b796000830184610afd565b92915050565b600081519050919050565b600082825260208201905092915050565b6000610ba682610c63565b9150610bb183610c63565b9250827fffffffffffffffffffffffffffffffffffffffffffffffffffffffffffffffff03821115610be657610be5610cdf565b5b828201905092915050565b6000610bfc82610c63565b9150610c0783610c63565b925082821015610c1a57610c19610cdf565b5b828203905092915050565b6000610c3082610c43565b9050919050565b60008115159050919050565b600073ffffffffffffffffffffffffffffffffffffffff82169050919050565b6000819050919050565b600060ff82169050919050565b60005b83811015610c98578082015181840152602081019050610c7d565b83811115610ca7576000848401525b50505050565b60006002820490506001821680610cc557607f821691505b60208210811415610cd957610cd8610d0e565b5b50919050565b7f4e487b7100000000000000000000000000000000000000000000000000000000600052601160045260246000fd5b7f4e487b7100000000000000000000000000000000000000000000000000000000600052602260045260246000fd5b6000601f19601f8301169050919050565b610d5781610c25565b8114610d6257600080fd5b50565b610d6e81610c63565b8114610d7957600080fd5b5056fea2646970667358221220782543913cc6cf1d3a728651c8a933f09eb9d13879f8bccad2c34e240abd528764736f6c63430008000033",
  "linkReferences": {},
  "deployedLinkReferences": {}
}